:100000000C944F000C946E000C946E000C946E00D7
:100010000C946E000C946E000C946E000C946E00A8
:100020000C946E000C946E000C946E000C946E0098
:100030000C946E000C9408010C946E000C946E00ED
:100040000C946E000C946E000C946E000C946E0078
:100050000C946E000C946E000C946E000C946E0068
:100060000C946E000C946E000C946E000C946E0058
:100070000C946E000C946E000C946E000C946E0048
:100080000C946E000C946E000C946E007401A2012E
:10009000DB01D401EC0125021E02360253021124B9
:1000A0001FBECFEFD0E4DEBFCDBF11E0A0E0B1E0D6
:1000B000E0E5F5E000E00BBF02C007900D92A43030
:1000C000B107D9F711E0A4E0B1E001C01D92AE3054
:1000D000B107E1F70E9482020C94A6020C94000082
:1000E00040E050E00CC000002F5F3F4F02C020E016
:1000F00030E0273063E03607B4F34F5F5F4F4817B7
:100100005907ACF308955E9888B95F9A00005F982C
:1001100082E090E00E9470000895813120F48158BF
:100120000E948300089581550E948300089581E014
:100130000E948300089584E690E00E94700088E3A6
:100140000E94830086E00E9483008FE00E9483006B
:1001500081E00E9483008AE090E00E947000089590
:100160005E9A88B95F9A00005F9881E090E00E94F3
:1001700070000895EF92FF920F931F93CF93DF9338
:10018000182FEB010E9497000EC001E0010F812F94
:100190000E948D007E018FEFE81AF80A88810E9484
:1001A000B000102FE70188818111EFCFDF91CF914F
:1001B0001F910F91FF90EF9008958BE08093810045
:1001C0008DE790E0909389008093880082E080938F
:1001D0006F00109285001092840080910001909130
:1001E0000101A0910201B091030180930701909356
:1001F0000801A0930901B0930A018FB780688FBFEF
:10020000089510928100089581E080930B01089574
:100210001F920F920FB60F9211240BB60F922F93CD
:100220003F934F935F936F937F938F939F93AF937E
:10023000BF93EF93FF938091070190910801A091E4
:100240000901B0910A010197A109B1098093070141
:1002500090930801A0930901B0930A01892B8A2B7E
:100260008B2B91F40E940401809100019091010177
:10027000A0910201B09103018093070190930801BE
:10028000A0930901B0930A01FF91EF91BF91AF9143
:100290009F918F917F916F915F914F913F912F919E
:1002A0000F900BBE0F900FBE0F901F90189560938C
:1002B0000001709301018093020190930301609308
:1002C0000701709308018093090190930A01089532
:1002D000E0910C01F0910D01E930F10508F0EAC060
:1002E000EA5BFF4F0C949D0280910601813061F41E
:1002F00080910501893008F0E1C081E090E09093A1
:100300000D0180930C01DAC0823061F48091050107
:10031000882309F4D3C084E090E090930D0180938A
:100320000C01CCC0833049F41092050187E090E0C5
:1003300090930D0180930C01C1C010920D01109299
:100340000C01BCC080910601813069F480910401E8
:100350008E3148F48F5F8093040181E090E09093A8
:100360000D0180930C0181E0909104019F3108F40C
:1003700080E080930601882371F080910501893027
:1003800008F09CC083E090E090930D0180930C01F5
:100390001092040193C0811191C082E090E090938B
:1003A0000D0180930C018AC081E090E090930D01D3
:1003B00080930C0183C0809105018F5F80930501BC
:1003C0000E94970080910501805D0E94B00010920C
:1003D0000D0110920C0172C080910601823069F407
:1003E000809104018E3148F48F5F8093040184E092
:1003F00090E090930D0180930C0181E090910401B5
:100400009F3108F480E080930601882371F0809189
:100410000501882309F452C086E090E090930D0115
:1004200080930C011092040149C0811147C085E0FE
:1004300090E090930D0180930C0140C084E090E027
:1004400090930D0180930C0139C08091050181507A
:10045000809305010E94970080910501805D0E94B4
:10046000B00010920D0110920C0128C0809106017D
:10047000833081F4109205010E949700809105015C
:10048000805D0E94B00087E090E090930D01809322
:100490000C0114C0811112C088E090E090930D010E
:1004A00080930C010BC01092050110920D01109267
:1004B0000C0104C010920D0110920C0180910C01EE
:1004C00090910D018330910519F0069771F0089510
:1004D000809105018F5F809305010E9497008091B4
:1004E0000501805D0E94B000089580910501815052
:1004F000809305010E94970080910501805D0E9414
:10050000B000089511B88FEF82B987B918B88AB9C9
:100510001BB864EF71E080E090E00E9457010E94F8
:10052000DD000E949B0080E30E94B00080B18095B6
:10053000809306010E946801F9CFEE0FFF1F00248F
:10054000001C0BBE0790F691E02D0994F894FFCFA4
:0405500001000000A6
:00000001FF
