:100000000C944D000C946C000C946C000C946C00DF
:100010000C946C000C946C000C946C000C946C00B0
:100020000C946C000C946C000C946C000C946C00A0
:100030000C946C000C9417010C946C000C946C00E4
:100040000C946C000C946C000C946C000C946C0080
:100050000C946C000C946C000C946C000C946C0070
:100060000C946C000C946C000C946C000C946C0060
:100070000C946C000C946C000C946C000C946C0050
:100080000C946C000C946C000C946C008301B10116
:10009000D001E10100021102270211241FBECFEF9F
:1000A000D0E4DEBFCDBF11E0A0E0B1E0E2ECF4E0CF
:1000B00000E00BBF02C007900D92A231B107D9F743
:1000C00011E0A2E1B1E001C01D92AC31B107E1F74E
:1000D0000E943A020C945F020C940000CF93C82F48
:1000E0008A3019F48DE00E946E009091C00095FF57
:1000F000FCCFC093C60080E090E0CF91089540E02F
:1001000050E00CC000002F5F3F4F02C020E030E005
:10011000273063E03607B4F34F5F5F4F4817590746
:10012000ACF308955E9888B95F9A00005F9882E00A
:1001300090E00E947F000895813120F481580E9450
:100140009200089581550E949200089581E00E94D6
:100150009200089584E690E00E947F0088E30E9468
:10016000920086E00E9492008FE00E94920081E05F
:100170000E9492008AE090E00E947F0008955E9ABB
:1001800088B95F9A00005F9881E090E00E947F004C
:100190000895EF92FF920F931F93CF93DF93182F41
:1001A000EB010E94A6000EC001E0010F812F0E940A
:1001B0009C007E018FEFE81AF80A88810E94BF0038
:1001C000102FE70188818111EFCFDF91CF911F912F
:1001D0000F91FF90EF9008958BE0809381008DE761
:1001E00090E0909389008093880082E080936F0074
:1001F000109285001092840080910001909101017D
:10020000A0910201B0910301809315019093160112
:10021000A0931701B09318018FB780688FBF08951E
:1002200010928100089581E08093190108951F9232
:100230000F920FB60F9211240BB60F922F933F938C
:100240004F935F936F937F938F939F93AF93BF93DE
:10025000EF93FF938091150190911601A0911701E2
:10026000B09118010197A109B109809315019093EC
:100270001601A0931701B0931801892B8A2B8B2BA1
:1002800091F40E9413018091000190910101A091CD
:100290000201B09103018093150190931601A09380
:1002A0001701B0931801FF91EF91BF91AF919F910A
:1002B0008F917F916F915F914F913F912F910F900F
:1002C0000BBE0F900FBE0F901F901895609300010A
:1002D00070930101809302019093030160931501D3
:1002E0007093160180931701909318010895E0917F
:1002F0001A01F0911B01E730F10508F0B6C0EA5B86
:10030000FF4F0C94560280911401813061F480916A
:100310001301893008F0ADC081E090E090931B019B
:1003200080931A010895823061F48091130188232B
:1003300009F49FC083E090E090931B0180931A0121
:100340000895833049F41092130185E090E0909372
:100350001B0180931A01089510921B0110921A013B
:10036000089580911401813039F481E090E09093F8
:100370001B0180931A010895833049F410921301F0
:1003800085E090E090931B0180931A0108958111FC
:1003900070C082E090E090931B0180931A01089551
:1003A000809113018F5F809313010E94A6008091BA
:1003B0001301805D0E94BF0010921B0110921A0170
:1003C000089580911401823039F483E090E0909395
:1003D0001B0180931A010895833049F41092130190
:1003E00085E090E090931B0180931A01089581119C
:1003F00040C084E090E090931B0180931A0108951F
:10040000809113018150809313010E94A600809176
:100410001301805D0E94BF0010921B0110921A010F
:10042000089580911401833049F41092130185E0FE
:1004300090E090931B0180931A010895811119C0D7
:1004400086E090E090931B0180931A01089510922A
:1004500013010E94A60080911301805D0E94BF00DD
:1004600010921B0110921A01089510921B01109214
:100470001A0108958FEF8AB91BB887B918B811B857
:1004800082B968EC70E080E090E00E9466010E9412
:10049000EC0080B18095809314010E9477018091D7
:1004A00019018823E1F310921901F3CFEE0FFF1F1A
:1004B0000024001C0BBE0790F691E02D0994F894DF
:0204C000FFCF6C
:1004C2000100000000000002000000006E000000B9
:0204D200000028
:00000001FF
