:100000000C9446000C9465000C9465000C946500FB
:100010000C9465000C9465000C9465000C946500CC
:100020000C9465000C9465000C9465000C946500BC
:100030000C9465000C94A3000C9465000C9465006E
:100040000C9465000C9465000C9465000C9465009C
:100050000C9465000C9465000C9465000C9465008C
:100060000C9465000C9465000C9465000C9465007C
:100070000C9465000C9465000C9465000C9465006C
:100080000C9465000C9465000C94650011241FBE4F
:10009000CFEFD0E4DEBFCDBF11E0A0E0B1E0EAEBEE
:1000A000F3E000E00BBF02C007900D92A231B10750
:1000B000D9F711E0A2E1B1E001C01D92AC31B10766
:1000C000E1F70E94BE010C94DB010C940000CF9379
:1000D000C82F8A3019F48DE00E9467009091C0000B
:1000E00095FFFCCFC093C60080E090E0CF910895CB
:1000F0008BE0809381008DE790E09093890080935E
:10010000880082E080936F00109285001092840036
:100110008091000190910101A0910201B091030131
:100120008093150190931601A0931701B0931801C5
:100130008FB780688FBF089510928100089581E085
:100140008093190108951F920F920FB60F921124F8
:100150000BB60F922F933F934F935F936F937F93C1
:100160008F939F93AF93BF93EF93FF93809115016C
:1001700090911601A0911701B09118010197A10962
:10018000B1098093150190931601A0931701B093C4
:100190001801892B8A2B8B2B91F40E949F00809150
:1001A000000190910101A0910201B091030180939F
:1001B000150190931601A0931701B0931801FF91B8
:1001C000EF91BF91AF919F918F917F916F915F91CF
:1001D0004F913F912F910F900BBE0F900FBE0F903C
:1001E0001F901895609300017093010180930201A4
:1001F000909303016093150170931601809317018A
:1002000090931801089580911A0190911B018230FA
:100210009105E9F128F4009759F00197D9F08AC0C7
:100220008330910509F445C0049709F456C082C093
:1002300080911201813039F483E090E090931B01AA
:1002400080931A017BC081E090E090931B01809322
:100250001A0174C080911201813039F483E090E07A
:1002600090931B0180931A0169C080911301811141
:1002700006C022E030E030931B0120931A01813048
:1002800009F05CC010921B0110921A0157C08091B6
:100290001201813039F483E090E090931B01809348
:1002A0001A014CC081E090E090931B0180931A01E9
:1002B00045C080911201813039F483E090E0909341
:1002C0001B0180931A013AC0811138C084E090E08C
:1002D00090931B0180931A0131C08091120181110A
:1002E00006C024E030E030931B0120931A018130D6
:1002F00041F490911401913021F410921B0110925D
:100300001A01813051F490911401923031F421E0BE
:1003100030E030931B0120931A01813079F48091F1
:100320001401843059F482E090E090931B01809393
:100330001A0104C010921B0110921A0180911A0137
:1003400090911B018130910551F018F0029759F0FE
:1003500008951092130181E080931401089582E0C2
:1003600080931401089581E090911301911180E030
:100370008093130184E08093140108958FEF84B972
:1003800015B811B882B96CE271E080E090E00E948B
:10039000F2000E94780080B18095809312010E9443
:1003A00003018091140185B9809119018823E1F33B
:0A03B00010921901F0CFF894FFCF6E
:1003BA0001000000000000020000000067000000C9
:0203CA00000031
:00000001FF
